:02000000522A82
:10000800FF00030E8301EC000A08ED008A01700866
:10001800A0008B1C21288B10C90A0319CA0A80303A
:10002800033AF00080304A067002031D1D28490873
:10003800E83C03182128C901CA012008F0006D080E
:0C0048008A006C0E8300FF0E7F0E090082
:060054000000000008009E
:0E005A00213083120313FD00FD0B3128080036
:100068000F3083120313FC004730FD00FD0B3A28C4
:0A007800FC0B3A280000000008000D
:1000820083120313F801F9011030FC00710DF80D11
:10009200F90D7408F8027508031C750FF9020318AC
:1000A20059287408F80775080318750FF907031023
:0A00B200F00DF10DFC0B47280800CB
:1000BC0083160313D11B65288312871367288312B9
:1000CC0087178316511B6D28831207136F28831211
:1000DC0007178316D11A7528831287127728831273
:1000EC0087168316511A7D28831207127F288312D4
:1000FC0007166B18832807158428071187152A20E3
:10010C0087118316D1198D28831287138F28831298
:10011C008717831651199528831207139728831272
:10012C0007178316D1189D28831287129F288312D4
:10013C00871683165118A52883120712A728831235
:10014C0007166B18AB280715AC28071187152A2042
:0E015C0087116B1CB3283420B4282D20080016
:10016A00831203136B1083164C08D1005E206B14A4
:02017A0008007B
:0E017C008312031366088A00650882000800DB
:10018A0083160313CF0105304F020318D3284F08F3
:10019A004E07840020308000CF0AC8284F084E0737
:1001AA0084008001CF034F084E07D0000A30F400C4
:1001BA00F5014C08F0004D08F10041207808F000E4
:1001CA007908F1003030F00783165008840070086F
:1001DA0080000A30F400F5014C08F0004D08F100E7
:1001EA00412070088316CC007108CD0000307106DA
:1001FA00031D012900307006031D04290629CF03B7
:04020A00D8280800E8
:10020E0083160313C801C9014508CA004608CB006E
:10021E0080304606F00080307002031D1829003031
:10022E004502031826290130C8000030C9004508D0
:10023E00003CCA004608031C013ECB01CB024A0813
:10024E00CC004B08CD004708CE00C52006308312E7
:10025E00EE000030EF006F08003C031D38296E08D9
:10026E00003C031857296E0883164707F200013029
:10027E0083126E02F0000030031C013E6F02F1008B
:10028E0070088316470784000008F0007208840087
:10029E007008800001308312EE02031CEF03322936
:1002AE00831647088400203080004808490403194B
:1002BE007B298312EE01EF016E0883164707840037
:1002CE000008203A031D70298312EE0A0319EF0A63
:1002DE00632983120130EE02031CEF036E088316AE
:0A02EE00470784002D30800008004F
:1002F8008E29803083160313C500A129C030C5009C
:10030800A1299430C500A129D430C500A129803085
:10031800C500A129831603134508013A03197D294D
:100328004508023A031982294508033A0319852921
:100338004508043A031988298B294603F000450823
:10034800F0077008C5007008D1005E206B10EE0140
:100358006E0883164707840000080319BD29831215
:100368006E088316470784000008CC00B520EE0A03
:08037800AC2983126B1408008C
:10038000D229803083160313C500E529C030C5008B
:10039000E5299430C500E529D430C500E529803031
:1003A000C500E529831603134508013A0319C1293D
:1003B0004508023A0319C6294508033A0319C92911
:1003C0004508043A0319CC29CF294603F000450813
:1003D000F0077008C50083126B1470088316D100F3
:1003E0005E206B1083164708D1005E206B14080056
:1003F0008316031387110711071287120713871338
:1004000083128711071187130713871207123420ED
:10041000342034208716071687152A2087113420A8
:1004200087152A208711342087152A208711342028
:10043000071287152A208711342087152A20871153
:100440008712871787152A208711342087130716EC
:1004500087152A208711071287152A208711342033
:1004600087152A208711071687152A20871134201F
:10047000071287152A20871187170717871607166F
:0C04800087152A20871134206B14080017
:10048C00BE208A110A128000840AE50A0319E60AC2
:08049C00F003031D462A0800CD
:1004A4006023FF30831603138600870101138B0139
:1004B4000B160B178B178B10F82101308316D10004
:1004C4005E200C308316D1005E2001308316C500F7
:1004D4000130C600A030C7007C2102308316C5005D
:1004E4000230C600B430C7007C211530FB004B300D
:1004F400FC00BE30FD00FD0B7D2AFC0B7D2AFB0BAE
:100504007D2A000001308316C5000130C600213069
:10051400C7007C2102308316C5000230C600363085
:10052400C7007C211530FB004B30FC00BE30FD00C1
:10053400FD0B9A2AFC0B9A2AFB0B9A2A0000013025
:10054400C9000030CA000130C7000030C800803044
:10055400F000803048067002031DB22A4708103CA0
:10056400031CCF2A0230FB000430FC00BA30FD002B
:10057400FD0BBA2AFC0BBA2AFB0BBA2A0000023084
:100584008316C500831247088316C600FF30C700D0
:10059400C021C70A0319C80AA92A01308316C50055
:1005A4000130C6004B30C7007C2102308316C500E1
:1005B4000230C6005B30C7007C2149088316C500A1
:1005C40083124A088316C6006730C7000721023029
:1005D400C5000B30C6006730C7007C21CF2AF12A42
:1006C00021308400443083120313F000F730E5003A
:1006D0000230E6004622A030840025300313F000EB
:0C06E0003B30E5000330E6004622080035
:1005EE002034203452346F347434653469347234A8
:1005FE006F34203450347234E134743469346334DB
:0A060E006F3420342034203400340F
:1006180053346934733474342E34203445346D348F
:100628006234613472346334613464346F347334E3
:0206380000348C
:04063A000034003454
:04063E000034003450
:100642002034203455346E34693475346234653460
:1006520020343234303432343234203420340034D2
:1006620043346F346E347434613464346F347234AE
:040672003A340034E2
:1006760020342034533465346A346134203462348F
:1006860065346D342D34763469346E3464346F34A5
:0806960020342034203400342C
:10069E0049346E3469346334693461346C3469348A
:1006AE007A3461346E3464346F342E342E342E34F6
:0206BE00003406
:02400E004A2F37
:00000001FF
