:02000000A42C2E
:06000600000000000800EC
:0E000C00213083120313FD00FD0B0A280800AB
:10001A000F3083120313FC004730FD00FD0B132839
:0A002A00FC0B132800000000080082
:0E003400F201F101F001F801F30100300800C3
:1000420083120313F801F9011030FC00710DF80D51
:10005200F90D7408F8027508031C750FF9020318EC
:1000620039287408F80775080318750FF907031083
:0A007200F00DF10DFC0B272808002B
:10007C0083160313B61B4528831286134728831255
:10008C0086178316361B4D28831206134F288312AE
:10009C0006178316B61A5528831286125728831210
:1000AC0086168316361A5D28831206125F28831271
:1000BC000616651863280615642806118615032094
:1000CC0086118316B6196D28831286136F28831236
:1000DC008617831636197528831206137728831210
:1000EC0006178316B6187D28831286127F28831272
:1000FC0086168316361885288312061287288312D3
:10010C00061665188B2806158C28061186150320F3
:0E011C008611651C93280D20942806200800EB
:10012A007B15FB1F9F280130F300F201F101F0015A
:08013A00FA0DF20CFF30080081
:08014200FA1FF213003008005F
:10014A007B14FB1FB028F201FA1FFF30F200F10006
:0A015A00F000FA0DF20CFF3008006F
:10016400FB14FB1FBC28FF30F300F200F100F00089
:08017400FA0DF20CFF30080047
:10017C0083120313FB01FA01F9018030F800F10C32
:10018C00F00C031CD2287408F90775080318750FB6
:10019C00FA070318FB0A0310F01FDA287408FA0791
:1001AC0075080318750FFB07FB0CFA0CF90CF80C0F
:1001BC00031CC5287B08F3007A08F2007908F100CB
:0601CC007808F0000800B5
:1001D20083120313651083163108B6003E2065149E
:0201E200080013
:0E01E4008312031367088A0066088200080071
:1001F20083160313B40105303402031807293408A7
:100202003307840020308000B40AFC283408330706
:1002120084008001B40334083307B5000A30F400C7
:10022200F5013108F0003208F10021207808F000D1
:100232007908F1003030F007831635088400700821
:1002420080000A30F400F5013108F0003208F100B4
:10025200212070088316B1007108B20000307106C7
:10026200031D352900307006031D38293A29B403CD
:040272000C2908004B
:100276000E3083120313FD00FD0B3F29000008001A
:06028600FB15FF3008002B
:10028C00A0017208031D5B297108F2007008F100CF
:10029C00F001A0157208031D5B297108F200F10131
:1002AC00A01120167208031969292008F302031DF6
:1002BC00031C6D290310F21B7129F00DF10DF20DC9
:1002CC00F30B61296D290130FC001A2074290230CE
:0E02DC00FC00952074290430FC00A1200800CD
:1002EA0083160313A901AA012808F2002808F300BB
:1002FA00720884000008203A031D882929082A0464
:10030A00031D882995290130A9000030AA00720826
:10031A0084000008F0007308840070088000F30A63
:10032A007208F100F20A710884000008003A031DFD
:08033A007D292808F0000800ED
:1003420083120313FB017308031D77080319F829AD
:1003520072087606FA007708F3077E30031CB52987
:10036200F3020318FB29B829F302031CFE297208C1
:10037200F8007108FC007008FD00F817F61703106A
:10038200F201F101F0011830A0007D1CD22974089D
:10039200F00775080318750FF10776080318760F32
:1003A200F207F20CF10CF00CF80CFC0CFD0C031033
:1003B200A00BC629F21BE229F80DF00DF10DF20D8A
:1003C200F3037B1B701CF429F81FF429F00A0319AC
:1003D200F10A0319F20A031DF429F20CF10CF00CD4
:1003E200F30A0319FB29FA1FF2130030002A013025
:1003F2001A20002A0230B220002A04309520000080
:020402000800F0
:1004040083120313FB01FC01FA0173080319412A47
:10041400F2178E30F302F31B122A0319122A442A0C
:10042400F309F30A08307302031C272AF300F10DC1
:100434007208F100F20108307302031C272AF10D3F
:10044400F1017308031D03102F2A730803192F2ABF
:100454000310F20CF10CF30B2A2A7B1B711C392AB2
:10046400031C392AF10A0319F20AF21B502AFA1F53
:10047400532AF209F109F10A0319F20A532AF20183
:10048400F101532A7B14FB1F562AF201FA1F562A44
:10049400FF30F200F100FA0DF20C562A0130FC0094
:1004A400582A0030FC00582AFF30FC00FC080319CD
:0E04B4005C2AA5207108F0007208F100080013
:1004C200831203139F01C0309F044409F000700897
:1004D20083169F051F179F172808F000F00D701054
:1004E200F00D7010F00D7010700883129F041F142D
:1004F2003B211F151F1D7F2A00007B2A1F101E088B
:10050200F100F00183161E08F0040030F104080027
:10051200831203137008F8007108F000F101F20170
:10052200F301FB01FC019630F300FA017008F100BF
:0C0532007808F000F801F20146210800F2
:10053E00831603130711831212150C30970408004B
:10054E0083160313AD01AE012808AF002908B000D1
:10055E0080302906F00080307002031DB82A00306A
:10056E0028020318C62A0130AD000030AE0028085C
:10057E00003CAF002908031C013EB001B0022F0859
:10058E00B1003008B2002A08B300F9200630AB00E3
:10059E000030AC002C08003C031DD72A2B08003C71
:1005AE000318F22A2B082A07F20001302B02F00062
:1005BE000030031C013E2C02F10070082A07840053
:1005CE000008F00072088400700880000130AB0251
:1005DE00031CAC03D12A2A088400203080002D0889
:1005EE002E040319102BAB01AC012B082A07840033
:1005FE000008203A031D072BAB0A0319AC0AFC2A8C
:10060E000130AB02031CAC032B082A0784002D30EB
:04061E008000080050
:100622008316031386110611061286120613861309
:1006320083128611061186130613861206120D20E6
:100642000D200D20861606168615032086110D2014
:100652008615032086110D208615032086110D2094
:1006620006128615032086110D2086150320861199
:10067200861286178615032086110D20861306160C
:1006820086150320861106128615032086110D2079
:1006920086150320861106168615032086110D2065
:1006A2000612861503208611861706178616061669
:0C06B2008615032086110D206514080039
:1006BE00F2208A110A128000840AE60A0319E70A58
:0806CE00F003031D5F2B08007F
:1006D600831603131208013EF000F1010318F10A14
:1006E6002808F400F501BE200630F2007008F40078
:1006F6007108F50072080319852BF50CF40CF51337
:10070600FF3E7E2B0430F1007408F00071080319D7
:10071600902BF00D7010FF3E8A2B30307005F300E1
:100726007408F0007508F100F10CF00CF113F10CEF
:10073600F00CF113700895000F30970573089704B5
:020746000800A9
:10074800831203137408003A031DBF2B7508003A7F
:10075800031DBF2B7608003A031DBF2B7708003A0C
:10076800031DBF2BFF30F000FF30F1007F30F20097
:10077800FF30F3005A2C83120313770803194E2C09
:1007880073080319512C720876068039FA00F2179B
:10079800F617A0017208F8007108FC007008FD0047
:1007A8007408FD027508031C750FFC027608031C0B
:1007B800760FF802F801FC01FD01031CEA2B031077
:1007C800F20CF10CF00CF80C0130A0007708F302E1
:1007D800031CF42B7E302007F3070318542CF92B45
:1007E8007E302007F307031C572C1830FA07FD0D3D
:1007F800FC0DF80DF00DF10DF20DA00D7408F002CE
:100808007508031C750FF1027608031C760FF202B7
:10081800760DA004201C122C7D141D2C7408F007E2
:1008280075080318750FF10776080318760AF2079A
:100838007D10FA031F307A05031DFB2B7B1B7D1CE3
:10084800442C0310F00DF10DF20DA00D7408F00208
:100858007508031C750FF1027608031C760FF20267
:10086800760D20040139FD070318FC0A0319F80A5C
:10087800031D442CF80CFC0CFD0CF30A0319542C32
:10088800FA1FF8137808F2007C08F1007D08F000E0
:100898000030592C01304321592C02301A20592C90
:0E08A8000430B220592C0830952000000800C2
:1008B6006D2C803083160313A800802CC030A8004E
:1008C600802C9430A800802CD430A800802C803056
:1008D600A800802C831603132808013A03195C2C00
:1008E6002808023A0319612C2808033A0319642CD4
:1008F6002808043A0319672C6A2C2903F0002808F3
:10090600F0077008A8007008B6003E206510831630
:10091600AB012B082A078400000803199B2C2B081F
:100926002A0784000008B100E9208316AB0A8C2C44
:06093600831265140800A5
:0C093C0083120313950117129712080094
:100948006E26FF3083160313850086018701831204
:100958001F139F1383161F1383129F111F129F12B9
:100968001F1483169F131F109F141F159F151C1407
:100978009C141C1504308C00831212109210C7307E
:10098800831692009E24112301308316B6003E2060
:100998000C308316B6003E2001308316A8000130C3
:1009A800A9003130AA005B2402308316A800013068
:1009B800A9002130AA005B241530FB004B30FC0055
:1009C800BE30FD00FD0BE62CFC0BE62CFB0BE62CE9
:1009D800000001308316B6003E2001308316A800BF
:1009E8000130A9006030AA005B2402308316A800F9
:1009F8000130A9005230AA005B248316A8016122A5
:100A08007008A6007108A70026088312E80083165C
:100A180027088312E90083162608F0002708F1004A
:100A280089220030F400C030F5007F30F6008830AD
:100A3800F700A42370088316A2007108A3007208A7
:100A4800A4007308A5002208F0002308F100240878
:100A5800F2002508F3000030F4000030F5007F3084
:100A6800F6008630F700A121022270088316A00044
:100A78007108A1002208F0002308F1002408F20000
:100A88002508F3000030F4000030F5004830F60087
:100A98008530F700A12102227008EE007108EF00EE
:100AA80083162608A8002708A9006A30AA00A722EA
:100AB8006A30A80075210130A8000530A9006A3005
:100AC800AA005B2403306902031D6C2DE83068021C
:100AD80003187E2D6908003C031D742D6808633CCB
:100AE80003187E2D01308316A8000830A90049306C
:100AF800AA005B2400306902031D842D643068025B
:100B08000318962D6908003C031D8C2D6808093CC4
:100B18000318962D01308316A8000730A900473026
:100B2800AA005B2400306902031D9C2D0A3068026C
:100B38000318A62D01308316A8000630A9004530F9
:100B4800AA005B2483162008A8002108A9006A309F
:100B5800AA00A7226A30A80075210230A800053033
:100B6800A9006A30AA005B24003083162102031D05
:100B7800BF2D643020020318D02D2108003C031D2E
:100B8800C72D2008093C0318D02D0230A8000730D3
:100B9800A9005030AA005B24003083162102031DEF
:100BA800D72D0A3020020318E02D0230A8000630A5
:100BB800A9004D30AA005B2483126E088316A80092
:100BC80083126F088316A9006A30AA00A7226A3028
:100BD800A80075210230A8000E30A9006A30AA00CA
:100BE8005B2400306F02031DFB2D64306E02031876
:100BF8000D2E6F08003C031D032E6E08093C0318D8
:100C08000D2E02308316A8001030A9004B30AA0020
:100C18005B2400306F02031D132E0A306E02031886
:100C28001D2E02308316A8000F30A9004130AA00FB
:100C38005B249F2283162008A8006B23012D232EF6
:100CDC0021308400443083120313F0002930E600E5
:080CEC000630E7005F23080059
:100C5200503457344D3420346434653420343034C5
:100C6200203461342034313430343034253400348B
:100C7200203447346534723461346E3464346F34F2
:100C82002034733469346E3461346C34203400346B
:060C920020342034003480
:020C98000F3417
:040C9A0020340034CE
:040C9E0020340034CA
:040CA20020340034C6
:040CA60020340034C2
:060CAA0020342034003468
:040CB00020340034B8
:100CB400503457344D343A342034203420342034E2
:0C0CC40020342034443443343A340034EB
:0A0CD00041344E3430343A3400341D
:02400E004A2F37
:00000001FF
