:02000000862D4B
:0E000600213083120313FD00FD0B07280800B4
:100014000F3083120313FC004730FD00FD0B102842
:0A002400FC0B10280000000008008B
:06002E00000000000800C4
:1000340083120313DB1B20288713212887175B1BDC
:100044002528071326280717DB1A2A2887122B28A6
:1000540087165B1A2F280712302807163D183428F4
:10006400071535280711871517208711DB193C2838
:1000740087133D2887175B19412807134228071760
:10008400DB1846288712472887165B184B28071267
:100094004C2807163D1850280715512807118715B5
:1000A400172087113D1C58280A20592803200800CE
:0E00B400F201F101F001F801F3010030080043
:1000C200FB14FB1F6B28FF30F300F200F100F0007D
:0800D200FA0DF20CFF300800EA
:1000DA007B15FB1F77280130F300F201F101F001D3
:0800EA00FA0DF20CFF300800D2
:0800F200FA1FF21300300800B0
:1000FA000E3083120313FD00FD0B81280000080057
:10010A00A0017208031D9A287108F2007008F10014
:10011A00F001A0157208031D9A287108F200F10176
:10012A00A011201672080319A8282008F302031D3B
:10013A00031CAC280310F21BB028F00DF10DF20DD0
:10014A00F30BA028AC280130FC005A20B328023057
:0E015A00FC006D20B3280430FC007920080062
:10016800831203133D105908DB001A203D140800C0
:0E017800831203133F088A003E08820008002D
:10018600831203135908F2007208F100F20A5A08A2
:10019600F000DA0A700884000008F0007108840094
:1001A600700880007108840000080319DB28C7283E
:0601B6005908F0000800EA
:1001BC0083120313FA017308031D7A147708031DC5
:1001CC00FA147A0803192A29033A0319F5287A181C
:1001DC00F228F61F28292629F21F26292829720819
:1001EC008039FA00F21376088039F6137A0603196F
:1001FC0003297A0803192629282977087302031979
:10020C000A29031C1E2922297608720203191129B6
:10021C00031C1E2922297508710203191829031CB5
:10022C001E2922297408700203192A29031822296D
:10023C00FA08031928292629FA0803192629282936
:10024C000314080003100800031403150800080029
:10025C0083120313FB017308031D77080319852907
:10026C0072087606FA007708F3077E30031C4229E1
:10027C00F302031888294529F302031C8B29720801
:10028C00F8007108FC007008FD00F817F617031051
:10029C00F201F101F0011830A0007D1C5F297408F7
:1002AC00F00775080318750FF10776080318760F19
:1002BC00F207F20CF10CF00CF80CFC0CFD0C03101A
:1002CC00A00B5329F21B6F29F80DF00DF10DF20D57
:1002DC00F3037B1B701C8129F81F8129F00A031979
:1002EC00F10A0319F20A031D8129F20CF10CF00C2E
:1002FC00F30A03198829FA1FF21300308D290130F3
:10030C005A208D29023061208D2904306D20000087
:02031C000800D7
:10031E0083120313FD01F8017008031900347406EB
:10032E00FA00FA1BFD09FB01F41F9F29F409F40AD8
:10033E00F01FA329F009F00A70087404FA00FA1BE2
:10034E00C7297408F802F00D700DF80D7408F8073F
:10035E00F00D0630FC00700DF80D74087018F802E0
:10036E00701CF807F00DFC0BB229701CF8077B18F7
:10037E00D529FD1F0034F009F00AF809F80A0034F7
:10038E00F41FD229F01BCF297008F800F001C02904
:10039E00F001F00A0034F009FB0AA829F80A7408E3
:1003AE007802031DC029F801F00AF01FC029FF349E
:0203BE00080035
:0603C000FB15FF300800F0
:1003C60083120313D701D8014C08D3004D08D4007B
:1003D6004E08D5004F08D6005608FF3A031DFD29E2
:1003E6005508FF3A031DFD295408FF3A031DFD2950
:1003F6005308FF3A031D072A5008D9002530DA00B2
:10040600C3200330F000E02B0130D100D51F162A9F
:1004160080305506F0007008D500D10A50088400D7
:100426002D308000D00A0030F0005606031D252A24
:1004360070085506031D252A70085406031D252A33
:100446005308003A031D2E2A5008D9002930DA0035
:10045600C320F001E02B5608FF3A031D3C2A55083D
:10046600003A031D3C2A5408003A031D3C2A53084F
:10047600003A031D462A5008D9002130DA00C3206D
:100486005108F000E02B0030F4000030F500003099
:10049600F6007F30F7005308F0005408F1005508C5
:1004A600F2005608F300DE20013003180030F00099
:1004B60070080319792A5308F0005408F10055080A
:1004C600F2005608F3000030F4000030F50020304A
:1004D600F6008230F7002E217008D3007108D40090
:1004E6007208D5007308D600D803462A0030F400F7
:1004F6000030F5002030F6008230F7005308F00097
:100506005408F1005508F2005608F300DE200130C9
:10051600031C0030F00070080319AC2A5308F000E1
:100526005408F1005508F2005608F300CD30F400E7
:10053600CC30F5004C30F6007B30F7002E217008E9
:10054600D3007108D4007208D5007308D600D80A03
:10055600792AFF305305F800FF305405F9007F3043
:100566005505FA0000305605FB007808F4007908B6
:10057600F5007A08F6007B08F700F40DF50DF60D88
:10058600F70D741000305305F00000305405F100EB
:1005960000305505F200FF305605F3007008D30011
:1005A6007108D4007208D5007308D6007408530485
:1005B600F00075085404F10076085504F200770837
:1005C6005604F3007008D3007108D4007208D500F1
:1005D6007308D6007F305602F0007008D200013052
:1005E600D6007008F4005308F0005408F1005508CE
:1005F600F2005608F30074080319082BF00DF10DEC
:10060600F20DF30D7010FF3EFF2A7008D30071083B
:10061600D4007208D5007308D6005608303EF000A4
:100626005008840070088000D00A80305806F00018
:100636008030013A7002031C292B8030063AF00004
:10064600803058067002031C292B302B500884007A
:100656002E308000D00A0130D7000630D200520872
:10066600003A03198E2BD6015308F0005408F10006
:100676005508F2005608F300F00DF10DF20DF30DDA
:100686007010F00DF10DF20DF30D70105308F00718
:1006960054080318540FF10755080318550FF207AD
:1006A60056080318560FF3077008D3007108D400D4
:1006B6007208D5007308D6005308F0005408F100FC
:1006C6005508F2005608F300F00DF10DF20DF30D8A
:1006D60070107008D3007108D4007208D500730832
:1006E600D6005608303EF00050088400700880009E
:1006F600D00A5708003A031D8C2BD8035808003A35
:10070600031D8C2B500884002E308000D00A013047
:10071600D700D203322BFF30500784000008303A4E
:10072600031D972BD0038E2BFF3050078400000843
:100736002E3A031D9F2BD0035808003A0319DC2BD1
:100746005008840065308000D00A80305806F000DA
:100756008030003A70020318B82B500884002D3000
:100766008000D00A5808003CD8005808D2008030D3
:10077600093AF0008030580670020318CE2B0A3072
:10078600F4005208F0008F213030F0075008840042
:1007960070088000D00A0A30F4005208F0008F2159
:1007A6007808F0003030F0075008840070088000A8
:0C07B600D00A500884008001F001080007
:1007C200831203139F01C0309F043C09F00070089C
:1007D20083169F051F179F1783124C08F000F00D18
:1007E2007010F00D7010F00D701070089F041F143F
:1007F2007D201F151F1DFF2B0000FB2B1F101E0845
:10080200F100F00183161E08F0040030F104080024
:10081200831203137408003A031D242C7508003A4E
:10082200031D242C7608003A031D242C7708003A75
:10083200031D242CFF30F000FF30F1007F30F20066
:10084200FF30F300BF2C8312031377080319B32C74
:1008520073080319B62C720876068039FA00F2176B
:10086200F617A0017208F8007108FC007008FD007C
:100872007408FD027508031C750FFC027608031C40
:10088200760FF802F801FC01FD01031C4F2C031046
:10089200F20CF10CF00CF80C0130A0007708F30216
:1008A200031C592C7E302007F3070318B92C5E2C49
:1008B2007E302007F307031CBC2C1830FA07FD0D0D
:1008C200FC0DF80DF00DF10DF20DA00D7408F00203
:1008D2007508031C750FF1027608031C760FF202ED
:1008E200760DA004201C772C7D14822C7408F0074E
:1008F20075080318750FF10776080318760AF207D0
:100902007D10FA031F307A05031D602C7B1B7D1CB2
:10091200A92C0310F00DF10DF20DA00D7408F002D8
:100922007508031C750FF1027608031C760FF2029C
:10093200760D20040139FD070318FC0A0319F80A91
:10094200031DA92CF80CFC0CFD0CF30A0319B92C9D
:10095200FA1FF8137808F2007C08F1007D08F00015
:100962000030BE2C0130E021BE2C02305A20BE2CB9
:0E09720004306120BE2C08306D20000008000B
:10098000D22C803083120313CC00E52CC030CC0075
:10099000E52C9430CC00E52CD430CC00E52C803014
:1009A000CC00E52C831203134C08013A0319C12C27
:1009B0004C08023A0319C62C4C08033A0319C92CF7
:1009C0004C08043A0319CC2CCF2C4D03F0004C08F2
:1009D000F0077008CC007008DB001A203D10CF0132
:1009E0004F084E07840000080319FE2C4F084E07DD
:1009F00084000008D900B420CF0AF02C3D14080070
:100A00008316031387110711071287120713871321
:100A100083128711071187130713871207120A2001
:100A20000A200A20871607168715172087110A2023
:100A30008715172087110A208715172087110A208C
:100A400007128715172087110A208715172087118D
:100A5000871287178715172087110A208713071613
:100A600087151720871107128715172087110A206D
:100A700087151720871107168715172087110A2059
:100A8000071287151720871187170717871607166C
:0C0A90008715172087110A203D1408006C
:100A9C00FF3083120313C900FF30CA00FF30CB00B4
:100AAC00FF309F01C0309F043C09F0007008831692
:0C0ABC009F051F179F1783121F140800CE
:100AC800831203137008F8007108F000F101F201B5
:100AD800F301FB01FC019630F300FA017008F10004
:0C0AE8007808F000F801F20185200800F9
:100AF400BC208A110A128000840ABE0A0319BF0AA4
:080B0400F003031D7A2D080027
:100B0C005A26FF30831603138500860101308700B7
:100B1C00880183120610081001309F000E308316D6
:100B2C009F004E25073083169C0000250130DB000A
:100B3C001A200C30DB001A201530FB004B30FC0067
:100B4C00BE30FD00FD0BA82DFC0BA82DFB0BA82D1A
:100B5C0000000130DB001A200130CC000130CD0048
:100B6C002D30CE00C024CC01E12370088312AB00E1
:100B7C007108AC0064250030F4000030F500003042
:100B8C00F6008930F70009240030F4000030F5003D
:100B9C007A30F6008730F7002E217008C0007108FB
:100BAC00C1007208C2007308C3007008CC00710841
:100BBC00CD007208CE007308CF004430D000E32182
:100BCC000130CC000D30CD004430CE00C0240030BC
:100BDC003B06031DF32D01303A06031D282E003071
:100BEC00F4000030F5004830F6008430F70040087F
:100BFC00F0004108F1004208F2004308F300DE2047
:100C0C000130031C0030F000700803190F2E06147D
:100C1C00282E4008F4004108F5004208F60043086D
:100C2C00F7000030F0000030F1003430F200843076
:100C3C00F300DE200130031C0030F00070080319B3
:100C4C00282E06100718312EBD18312EBA09BB09F3
:100C5C0001308806BD14071C362EBD1C362EBD1067
:040C6C00B92D372E39
:100CB400213084001C3083120313F0003D30BE0049
:080CC4000630BF007A2508008C
:080C7A0049344E3446340034C5
:080C82004E3461344E3400349D
:040C8A0030340034CE
:040C8E0000340034FA
:100C9200543465346D347034653472346134743470
:0A0CA2007534723461343A340034C2
:040CAC0000340034DC
:020CB0000F34FF
:02400E004A2F37
:00000001FF
