:020000004E2987
:10000800FF00030E83018316D1000A08D2008A017B
:1000180070088312A0000B1D2528EE0A0319EF0AA9
:1000280000306F06031D1A287D306E06031D202838
:10003800EE01EF018316D0140B118B168330831257
:1000480081002008F000831652088A00510E8300B0
:06005800FF0E7F0E0900FF
:10005E00103083120313FD00FD0B3328000008003F
:10006E00083083120313FC002330FD00FD0B3D28E6
:06007E00FC0B3D28080008
:040084000000080070
:1000880083160313D81B4B28831287134D2883121A
:1000980087178316581B5328831207135528831272
:1000A80007178316D81A5B28831287125D288312D4
:1000B80087168316581A6328831207126528831235
:1000C8000716831650186B28831207156D2883129C
:1000D80007118715422087118316D81976288312AD
:1000E8008713782883128717831658197E28831256
:1000F80007138028831207178316D81886288312B7
:100108008712882883128716831658188E28831218
:100118000712902883120716831650189628831200
:10012800071598288312071187154220871183160F
:0C013800501CA0283720A1282F20080010
:0E014400831603134F088A004E08820008003D
:100152008316031350105708D800442083165014F6
:02016200080093
:1001640083160313871107110712871207138713C6
:100174008312871107118713071387120712372079
:100184003720372087160716871542208711372016
:100194008715422087113720871542208711372081
:1001A40007128715422087113720871542208711AF
:1001B4008712871787154220871137208713071660
:1001C400871542208711071287154220871137208F
:1001D400871542208711071687154220871137207B
:1001E40007128715422087118717071787160716E6
:0E01F40087154220871137208316501408000B
:100202001329803083160313D3002629C030D3006C
:1002120026299430D3002629D430D30026298030D1
:10022200D3002629831603135308013A031902291E
:100232005308023A031907295308033A03190A29F2
:100242005308043A03190D2910295403F0005308E6
:10025200F0077008D3007008D800442083165010AD
:10026200D60156085507840000080319402956088C
:10027200550784000008D700A920D60A3229501455
:02028200080072
:10028400A2208A110A128000840ACE0A0319CF0A16
:08029400F003031D42290800DC
:10029C00F422831603138601870183128601B22090
:1002AC000130D80044200C308316D8004420013093
:1002BC008316D3000130D4003130D5000121023037
:1002CC00D3000130D4002130D50001210630FB00D1
:1002DC001330FC00AD30FD00FD0B7229FC0B7229B4
:1002EC00FB0B7229000000008312C1018030410613
:1002FC00F00080300F3A70020318972918308316DB
:10030C00D80044200230FB000430FC00BA30FD0061
:10031C00FD0B8E29FC0B8E29FB0B8E290000C10ACC
:10032C007C29C10180304106F00080300F3A700208
:10033C000318B3291C308316D80044200230FB006C
:10034C000430FC00BA30FD00FD0BAA29FC0BAA29D5
:10035C00FB0BAA290000C10A98290630FB001330B8
:10036C00FC00AD30FD00FD0BB929FC0BB929FB0BD2
:10037C00B9290000000001308316D8004420013058
:10038C008316D3000130D4004230D50001218112F4
:10039C000112811101158110011483308312810027
:1003AC008B018B160B118B178316D01C702AD01057
:1003BC00502A0230D3000530D400A930D5000121D9
:1003CC0001308312860087148316B20A702A023019
:1003DC00D3000530D400C530D50001210230831282
:1003EC00860087108316B20A702A0230D3000530BB
:1003FC00D400BC30D5000121043083128600871450
:10040C008316B20A702A0230D3000530D400B33000
:10041C00D500012108308312860087108316B20A9A
:10042C00702A0230D3000530D4006530D50001218C
:10043C0010308312860087148316B20A702A023099
:10044C00D3000530D4005C30D5000121203083125C
:10045C00860087108316B20A702A0230D30005304A
:10046C00D4005330D500012140308312860087140C
:10047C008316B20A702A0230D3000530D400A030A3
:10048C00D50001218030831286008710013083163D
:10049C00B200702A3208013A0319DF293208023AF5
:1004AC000319ED293208033A0319FB293208043ADF
:1004BC000319092A3208053A0319172A3208063A91
:1004CC000319252A3208073A0319332A3208083A45
:0804DC000319412ADA29712AF3
:1005E800213084004F3083120313F00077308316D4
:1005F800CE000230CF004221A03084002E300313F9
:10060800F000C6308316CE000230CF004221080029
:1004EE0045346E3467342E34203443346F346D34D7
:1004FE007034753474346134633461346F34003461
:10050E0020342034203450347234613474346934DD
:10051E0063346134203438342034203420340034B1
:02052E00003497
:1005300020342034533465347134753465346E346A
:1005400063346934613464346F3472342034203459
:02055000003475
:100552003034313430343034303430343034303478
:02056200003463
:100564003034303431343034303430343034303466
:02057400003451
:100576003034303430343134303430343034303454
:0205860000343F
:040588000034003407
:10058C00313430343034303430343034303430343E
:02059C00003429
:10059E00303430343034303430343034303431342C
:0205AE00003417
:0205B000013414
:1005B2003034303430343034313430343034303418
:0205C200003403
:1005C4003034303430343034303431343034303406
:0205D4000034F1
:1005D60030343034303430343034303431343034F4
:0205E6000034DF
:02400E004A2F37
:00000001FF
