:0200000067296E
:10000800FF00030E8301AB000A08AA008A017008EA
:10001800A0000B1D2328A50A0319A60A2608013AE1
:10002800031D1828F4302506031D1F28A914A5014F
:10003800A601043087060B118B16063081002008B4
:10004800F0002A088A002B0E8300FF0E7F0E09009D
:1000580083120313F801F9011030FC00710DF80D3B
:10006800F90D7408F8027508031C750FF9020318D6
:1000780044287408F80775080318750FF907031062
:0A008800F00DF10DFC0B322808000A
:1000920083120313B80105303802031857283808B1
:1000A2003707840020308000B80A4C283808370708
:1000B20084008001B80338083707B9000A30F40019
:1000C200F5013508F0003608F1002C207808F00020
:1000D2007908F1003030F007390884007008800098
:1000E2000A30F400F5013508F0003608F1002C2042
:1000F2007008B5007108B60000307106031D832830
:1001020000307006031D86288828B8035C28080082
:100112008316031398188F28000089288312350844
:040122009900080038
:10012600243083120313FD00FD0B972800000800FE
:0E0136008312031324088A00230882000800A5
:10014400831203139F01C0309F042209F00070083A
:1001540083169F051F179F1783122C08F000F00DBC
:100164007010F00D7010F00D701070089F041F14C3
:1001740093201F151F1DC0280000BC281F101E0837
:10018400F100F00183161E088312F0040030F1041C
:02019400080061
:1001960083120313B101B2012C08B3002D08B40079
:1001A60080302D06F00080307002031DDC28003000
:1001B6002C020318EA280130B1000030B2002C08E6
:1001C600003CB3002D08031C013EB401B402330801
:1001D600B5003408B6002E08B70049200630AF0037
:1001E6000030B0003008003C031DFB282F08003CFF
:1001F600031816292F082E07F20001302F02F000EF
:100206000030031C013E3002F10070082E07840006
:100216000008F00072088400700880000130AF0208
:10022600031CB003F5282E08840020308000310816
:10023600320403193429AF01B0012F082E078400B8
:100246000008203A031D2B29AF0A0319B00A2029FA
:100256000130AF02031CB0032F082E0784002D3097
:04026600800008000C
:10026A009B208A110A128000840AA30A0319A40A8D
:08027A00F003031D3529080003
:1002820083120313AE012C0884000008AD002D0870
:10029200003A031956292D08B5008920AE0A2E0806
:0C02A2002C0784000008AD00482908006B
:1002AE0083160313981690308312980083168717BF
:1002BE00071383128C1E66291A08F00060290800A5
:1002CE00D221FF30831603138500870183121F137B
:1002DE009F1383161F1383129F111F129F121F1439
:1002EE0083169F131F109F141F159F151C149C140B
:1002FE001C15811201128111011581100114063095
:10030E00831281008B018B160B118B178130831694
:10031E009900181557210330FB008A30FC00553028
:10032E00FD00FD0B9829FC0B9829FB0B982900006A
:10033E0000007F308316860083120610A91CC9297F
:10034E00A9100618AE292918AE29A10A2914061CCF
:10035E00B329291CB3292910AC01A2207008A700CB
:10036E007108A8007008AC007108AD002108AE003D
:10037E00CB202108AC0041210D30B50089200D3075
:08038E00B5008920A529CA2948
:1003A40021308400023083120313F000D030A30004
:0803B4000130A400352108000E
:0203A000003427
:0203A2000F3416
:02400E004A2F37
:00000001FF
