:02000000512885
:10000800FF00030E8301B1000A08B2008A01040848
:10001800A0000B1D3528AD0A0319AE0A2E08013AB7
:10002800031D1828F4302D06031D3128AD01AE013B
:10003800AB0A0319AC0A8030F00080302C0670023D
:10004800031D28282B08093C03182C28AB01AC01F8
:100058002B08213E8400000888000B118B16833082
:1000680081002008840032088A00310E8300FF0EC8
:040078007F0E0900EE
:0E007C008312031330088A002F088200080048
:10008A003E208A110A128000840AAF0A0319B00AB4
:08009A00F003031D45280800D6
:1000A2003F3083120313A1000630A2005B30A3008D
:1000B2004F30A4006630A5006D30A6007D30A70049
:1000C2000730A8007F30A9006730AA00AB01AC015D
:1000D200AD01AE01FF308316850088018112011245
:1000E20081110111811401148330831281008B016B
:1000F2008B160B118B172B08213E840000088800F9
:0401020081288228A6
:02400E004A2F37
:00000001FF
