:02000000FA29DB
:06000600000000000800EC
:10000C000F3083120313FC004730FD00FD0B0C284E
:0A001C00FC0B0C2800000000080097
:0E002600213083120313FD00FD0B1728080084
:1000340083160313BA1B2128831206102328831264
:10004400061483163A1B2928831286102B28831240
:1000540086148316BA1A31288312061133288312A0
:10006400061583163A1A3928831286113B288312FF
:1000740086156E183F288616402886120616032019
:1000840006128316BA194928831206104B288312C4
:10009400061483163A1951288312861053288312A2
:1000A40086148316BA185928831206115B28831202
:1000B400061583163A186128831286116328831261
:1000C40086156E1867288616682886120616032079
:0E00D40006126E1C6F280620702813200800EC
:1000E20083120313F8010830FC00700DF80D740838
:1000F200F80203187E28F8070310F00DFC0B76288F
:020102000800F3
:10010400831203136E1083163908BA001A206E1472
:020114000800E1
:0E011600831203136D088A006C088200080033
:1001240083160313B701033037020318A0283708D6
:100134003607840020308000B70A95283708360730
:1001440084008001B70337083607B8000A30F4008A
:100154003508F00071207808F0003030F00783167D
:1001640038088400700880000A30F4003508F00074
:10017400712070088316B5007008003A031DC32867
:08018400C528B703A5280800F7
:10018C0083160313061286128611061186100610AA
:10019C00831206128612061086100611861106208E
:1001AC0006200620061586150616032006120620C4
:1001BC000616032006120620061603200612062039
:1001CC0086110616032006120620061603200612B8
:1001DC0006110614061603200612062006108615B4
:1001EC000616032006128611061603200612062098
:1001FC000616032006128615061603200612062084
:10020C00861106160320061206148614061586158A
:0C021C0006160320061206206E140800CF
:1002280083120313A0010830200203184D2908196E
:100238001E291B291330FD00FD0B2029000000009A
:10024800081938292008073CF0007008F10001302F
:10025800F000710803193429F00D7010FF3E2E29A3
:10026800F0097008A4054B292008073CF000700825
:10027800F1000130F000710803194629F00D7010E3
:10028800FF3E40297008A404081D4B294829A00AEC
:04029800172908001A
:10029C006029803083160313B5007329C030B50074
:1002AC0073299430B5007329D430B500732980308C
:1002BC00B5007329831603133508013A03194F2926
:1002CC003508023A031954293508033A03195729FA
:1002DC003508043A03195A295D293603F00035080C
:1002EC00F0077008B5007008BA001A206E1083165B
:1002FC00B801380837078400000803198E2938081C
:10030C00370784000008B90082208316B80A7F29B9
:06031C0083126E140800BC
:10032200831603130811831208112F30FC00BF300B
:10033200FD00FD0B9A29FC0B9A290000000008150C
:100342001330FD00FD0BA3290000000083160815E1
:020352000800A1
:1003540083160313B601B7013508F2003508F3001C
:10036400720884000008203A031DBD2936083704AA
:10037400031DBD29CA290130B6000030B700720838
:1003840084000008F0007308840070088000F30AF9
:100394007208F100F20A710884000008003A031D93
:0803A400B2293508F000080041
:1003AC008B208A110A128000840AEC0A0319ED0AC8
:0803BC00F003031DD62908001F
:1003C40083120313A1011A30FD00FD0BE72900007D
:1003D4000819F9293530FD00FD0BEE29081DF42913
:1003E4000130A1001A30FD00FD0BF62900000800C1
:1003F400102383160313860183128601C6200C3052
:100404008316BA001A2001308316BA001A209121EB
:10041400E2212108013A031D852A14212408A3009E
:1004240014212408A20014212408DA001421240829
:10043400D90014212408D80022082307F000F10170
:100444000318F10A5A08F0070318F10A590870074B
:10045400F20071080318013EF30000307306031D17
:10046400352A72082406031D702AA030EF000130DB
:100474008316B5000130B60083126F088316B700E7
:100484004E215B30EF0002308316B5000130B60018
:1004940083126F088316B7004E215A088316B500DD
:1004A400B130B6009220B130B500AA217008B7006F
:1004B4000130B5000E30B6004E2123088316B50076
:1004C400B130B6009220B130B500AA217008B7004F
:1004D4000230B5000E30B6004E21842A0C3083164B
:1004E400BA001A2001308316BA001A203630EF0001
:1004F40001308316B5000130B60083126F088316ED
:10050400B7004E219D2A2530EF0001308316B50037
:100514000330B60083126F088316B7004E214730AC
:10052400EF0002308316B5000130B60083126F0865
:100534008316B7004E210B30FB002630FC005D30E3
:10054400FD00FD0BA32AFC0BA32AFB0BA32A00002E
:060554000000092AAC2A98
:10062000203084004C3083120313F000B230EC0011
:100630000230ED00D621A030840011300313F00009
:0C064000FE30EC000230ED00D621080076
:02056400003461
:0205660000345F
:0205680000345D
:02056A0000345B
:02056C00003459
:10056E0020342034533465346D3420347234653481
:10057E00733470346F3473347434613420342034F3
:02058E00003437
:100590004534723472346F3420346434653420341A
:1005A00043346834653463346B34533475346D3498
:0205B000003415
:1005B200203420342034203464346F3420347334B3
:1005C20065346E3473346F34723420342034203402
:0205D2000034F3
:0205D4000034F1
:0205D6000034EF
:0205D8000034ED
:1005DA00203420342034203455346D346934643462
:1005EA006134643465343A34203420342034253478
:0205FA000034CB
:1005FC00543465346D34703465347234613474340D
:10060C007534723461343A34203420342034433419
:02061C000034A8
:02400E004A2F37
:00000001FF
