:02000000412895
:0E0006008312031324088A00230882000800D6
:1000140003208A110A128000840AA30A0319A40A7D
:08002400F003031D0A28080087
:10002C0083120313FB01FA01F9018030F800F10C83
:10003C00F00C031C2A287408F90775080318750FAF
:10004C00FA070318FB0A0310F01F32287408FA078A
:10005C0075080318750FFB07FB0CFA0CF90CF80C60
:10006C00031C1D287B08F3007A08F2007908F100C4
:06007C007808F000080006
:10008200013083120313A000A101A201831687018C
:100092008312171497141715971512109210121134
:1000A2009211121292121213FF30831692008312CF
:1000B2001712971295012208950020082207F100D5
:1000C2007108A2007108FF3A031D74282008F0008D
:1000D2002108F100FF30F400FF30F500162070080F
:1000E200A0007108A1002208003A031D85282008FB
:1000F200F0002108F100FF30F400FF30F500162077
:100102007008A0007108A1006830FC00E430FD0016
:0E011200FD0B8928FC0B892800005C288F2833
:02400E004A2F37
:00000001FF
