:02000000662870
:10000800FF00030E8301B4000A08B3008A01040844
:10001800A0000B1D4A28A50A0319A60A00302606C7
:10002800031D18287D302506031D4628A501A601B5
:10003800A10A0319A20A8030F0008030220670025B
:10004800031D28282108093C03183C28A101A20106
:10005800A30A0319A40A8030F00080302406700235
:10006800031D38282308093C03183C28A301A401D0
:100078002108273E8400000888002308273E8400C2
:10008800000887000B118B1683308100200884003C
:0E00980033088A00340E8300FF0E7F0E09002D
:0E00A6008312031332088A003108820008001A
:1000B40053208A110A128000840AB10A0319B20A71
:0800C400F003031D5A28080097
:1000CC0083120313A101A201A301A401A501A6019E
:1000DC003F30A7000630A8005B30A9004F30AA00C3
:1000EC006630AB006D30AC007D30AD000730AE003B
:1000FC007F30AF006730B000FF3083168500880179
:10010C0087018112011281110111811401148330B4
:10011C00831281008B018B160B118B172108273E44
:10012C008400000888002308273E8400000887000C
:04013C009E289F2832
:02400E004A2F37
:00000001FF
