:02000000502886
:0E000600073083120313FD00FD0B07280800CE
:0E0014008312031328088A00270882000800C0
:10002200C730831203139F052008F000F00D7010F3
:10003200F00D7010F00D701070089F0403201F1552
:100042001F1D2528000021281E08F100F00183163B
:0A0052001E08F0040030F10408005D
:10005C000A208A110A128000840AA70A0319A80A26
:08006C00F003031D2E2808001B
:10007400113083120313A4000030A5002030A60021
:1000840000309F01C0309F042109F00070088316DE
:0C0094009F051F179F1783121F14080000
:1000A0008620FF30831603138500860187018312A3
:1000B0001F139F1383161F1383129F111F129F126A
:1000C0001F1483169F131F109F141F159F151C14B8
:1000D0009C141C153A2086018701A001112070088C
:1000E0008312A2007108A300700886007108F20054
:0A00F000F301720887006D287C28D8
:10010C0021308400033083120313F0008230A700E7
:08011C000030A8002E200800AD
:020104000F34B6
:04010600003400348D
:02400E004A2F37
:00000001FF
