:02000000822854
:10000800FF00030E8301B9000A08B8008A017008CE
:10001800A0000408A1000B1D64282C08043A031D45
:100028001F28F73087003208223E84000008860027
:100038000330AC0044282C08033A031D2D28FB305C
:1000480087003108223E8400000886000230AC0098
:1000580044282C08023A031D3B28FD308700340849
:10006800223E8400000886000130AC004428FE309F
:1000780087003308223E8400000886000430AC0064
:10008800AF0A0319B00AAD0A0319AE0A00303006E8
:10009800031D5028FA302F06031D5528AF01B00163
:1000A800371400302E06031D5B287D302D06031DF6
:1000B8006028AD01AE0137150B118B168330810016
:1000C8002008F0002108840038088A00390E8300CF
:0600D800FF0E7F0E09007F
:0E00DE008312031336088A00350882000800DA
:1000EC006F208A110A128000840AB50A0319B60A15
:0800FC00F003031D7628080043
:100104003F3083120313A2000630A3005B30A40027
:100114004F30A5006630A6006D30A7007D30A800E2
:100124000730A9007F30AA006730AB000130AC0073
:10013400AD01AE01AF01B001B101B201B301B4012F
:10014400063083169F00FD308500870186018112E9
:100154000112811101118114011083308312810075
:100164008B018B160B118B1722088600FE3087003B
:10017400FD308700FB308700F73087008510B7100B
:10018400371CED283710B20A8030093AF00080306D
:10019400320670020318ED28B201B10A8030093A20
:1001A400F0008030310670020318ED28B101B40A62
:1001B4008030093AF0008030340670020318ED28CC
:1001C400B401B30A8030093AF0008030330670027B
:1001D4000318ED28B3010518F628B718F628B2015C
:1001E400B101B401B301B714051CFB28B71CFB28EB
:1001F400B710371D03293711851C022985100329DF
:060204008514C228042944
:02400E004A2F37
:00000001FF
